:030000000217F6EE
:0C17F600787FE4F6D8FD75817202183D82
:1000260040404040404040FF40404040404040004B
:10003600000000000000007F00000000000000003B
:1000460000808080808080808080808080C080006A
:10005600000000000000000000000000000000009A
:100066004020F80702FE9292BE00929292BE0000D5
:1000760000007F00007F04444421161836612000EA
:100086000004FF545454FF0400FE222222FE000006
:1000960042221B02020A336218070222423F000074
:1000A6000020100807FC94949494949494040400FB
:1000B60000203800003B40424C40407004083000AD
:1000C600000000804020180F827020000000000011
:1000D600000001203028242221301014187020003E
:1000E60080818E0400105090101010FF1010100028
:1000F60040201F20204040434148504F4040400090
:100106000060100808906000000000000000000079
:10011600000000005F00000000000000000000007A
:10012600000000FE22222222FE22222222FE0000BF
:100136008040300F02020202FF020242827F00006C
:100146000202020282F24E4242424242C2020200CF
:1001560010080402017F2020202020207F000000BC
:1001660000000012642C0000FF00000000000000E8
:10017600010181412111090503051931E141010000
:1001860002C2FE42C200FE02F212FE1212F2020089
:1001960001003F103F007F404F407F4448474000EA
:1001A600201AFAAFAAEF0AFA108F54245C840400CE
:1001B600020202EAAAAAABAAABAAAAEA02020300B0
:1001C600000484C4A49C8784F4848484848400000A
:1001D6000404040404040404FF04040404040400E2
:1001E60000808080808080808080808080C08000C9
:1001F60000000000000000000000000000000000F9
:1002060084E49CE78484F212FE1212FE1212F200BB
:10021600080808FF0404FF0C030A040344887F004F
:1002260000000000000000000000000000000000C8
:100236000000583800000000000000000000000028
:100246000202E2AEAAAAAAABAAAAAAAAE2020200DD
:10025600807EAAFE009E423E429E807E12FE800066
:10026600100884E31A005F55555555D55F40400088
:10027600020100FF0002023A0242827F02020200ED
:1002860020202A2AAAEABAAEA9A9A9A929202000CB
:1002960004020201FF4A4A4A4A4A4AFF0000000095
:1002A60000908C84848484858684F484948C840071
:1002B60000000000021C080040807F0000000000D3
:1002C60000FE121211F10100FE222221E12121007D
:1002D600403F01018141300C03000000FF00000097
:1002E6000030088888483000000000000000000048
:1002F6000018202020110E00000000000000000061
:1003060000404242424242FE424242424242400093
:10031600008040201008060102040810306020000A
:10032600202010F0A8A4ABB2A4A8F0102020000052
:10033600000000FF4222060A0A122B640000000099
:10034600001804C43C149596D4B49494940C0400F8
:100356000402017F00007F24242424247F0000005F
:1003660000804060504844C34448507060200000FC
:10037600004040444444447F444444464460400072
:10038600804020D84F4A484848C80808FC08000062
:100396000000003F42424242424348504F407000F4
:1003A60040484848FF484882C2BE82A2C2BE0000FA
:1003B600601F20407F4242405F484848485F4000F7
:1003C6008040F02F0204E4A4B4AFA6A4E404000025
:1003D6000000FF0040407F4A4A4A4A4A7F404000A8
:1003E6001061866008F94EC828102FA868280800F2
:1003F60004FC03403847807F0042827F02020200ED
:1004060000000000000000000000000000000000E6
:100416000000583800000000000000000000000046
:1004260002C2FE42C200FE02F212FE1212F20200E6
:1004360001003F103F007F404F407F444847400047
:1004460002F2121212FE921212FE121212FB120087
:10045600007F08040300100906010126403F000042
:1004660084E49CE78484F212FE1212FE1212F20059
:10047600080808FF0404FF0C030A040344887F00ED
:100486004041CE0400028242F20E42820202000085
:1004960040201F20424140405F40404047424000CC
:1004A6004041C6004048494EF84C4B484840000081
:1004B60040201F20404844434041424C40404000B9
:1004C6002438E0FFB02C0022AAAABFAAAAAA2200BA
:1004D600080700FF00010200FF0A0A4A8A7F00009F
:1004E60000848494959694FC9496959494848000C4
:1004F6008080444424140C070C142464C444000073
:1005060000242424242424FE222222222220000045
:10051600020202020242827F02020202020202007A
:100526004030EF24240044D804744FF444440000BF
:1005360001017F211148201F2242425F42424200B0
:1005460000808080808080808080808080C0800065
:100556000000000000000000000000000000000095
:10056600002020108C8F54A424544C84808080005A
:10057600000121130A42827F02020A12330200009E
:100586000000000000000000000000000000000065
:1005960000005838000000000000000000000000C5
:1005A60000FC444444FC1090101010FF1010100082
:1005B60000070404040700000340807F00000000D9
:1005C6000000E22438A8A0BFA0B0A82624E00000BE
:1005D6000000FF00003F080808081F40807F000059
:1005E60000FE02020202827E8202020202FE000077
:1005F600007F3028242221202021262C207F000065
:10060600040404048444253EC404048464440400AD
:1006160008040241FF40200000030D102060200066
:1006260000808080808080808080808080C0800084
:1006360000000000000000000000000000000000B4
:1006460040442424F45C5754545C542464C4440049
:1006560004044464574D4565252535E444040400E7
:100666000000000000000000000000000000000084
:1006760000005838000000000000000000000000E4
:1006860020202424A4643C272424A42424202000FD
:1006960000000000010109112945030100000000C6
:1006A600000484C4A49C8784F48484848484000025
:1006B6000404040404040404FF04040404040400FD
:1006C600080808FF8868242CB42526342C2420002A
:1006D6000242817F02828A4E5332122E42C20200A9
:1006E6004041C6004048494EF84C4B48484000003F
:1006F60040201F20404844434041424C4040400077
:100706009088A7A2A6BAA2F8A7A2A6BAA28280003B
:1007160000040404040C340444847F04040400002C
:1007260000000000000000000000000000000000C3
:100736000000583800000000000000000000000023
:1007460002C2FE42C200FE02F212FE1212F20200C3
:1007560001003F103F007F404F407F444847400024
:1007660000F88C8B88F840308F08080808F80000DD
:10077600007F1010103F000000032640201F0000DD
:1007860040484848FF4840F808087F8809EA48007A
:10079600601F20407F42424F444A444345481E0062
:1007A6000000002090885453A222120A060000007E
:1007B6000081898944444225291111090503010054
:1007C6000000000000000000000000000000000023
:1007D6000000583800000000000000000000000083
:1007E600806000FF106004E42425262424E404002D
:1007F600000000FF0020100D41817F010519300027
:1008060000020AEAAAAAAAAFAAAAAAEA0A0200004B
:100816000202027A4A4B4A4A4A4B4A7A02020200CA
:1008260040484848FF4840F808087F8809EA4800D9
:10083600601F20407F42424F444A444345481E00C1
:100846000000002090885453A222120A06000000DD
:1008560000818989444442252911110905030100B3
:100866000000000000000000000000000000000082
:1008760000182424180000000000000000000000FA
:100886000808E8A8A9AEEA0808C80C0BEA08080098
:1008960000007F0424443F00001F40807F000000CA
:1008A600001010F80000000000000000000000002A
:1008B6000020203F20200000000000000000000073
:1008C60000E010080810E000000000000000000032
:1008D600000F102020100F00000000000000000094
:1008E60000402010082744844424140C040000000F
:1008F600040404027E232322222222227E000000F8
:10090600000202F212121212F2020202FE020200A9
:100916000000000702020202071020403F0000000C
:10092600000404745454555654545474040400007A
:1009360008080909092949897D0B0B0908080800D7
:100946008062262A3222263A2B21312FA5602000EA
:100956000080804143252911112D2340C04000000D
:10096600002010E8242724E424342C24E00000008E
:100976000000804321190701013F414143407000B7
:1009860000003A2AAA6A3F2A2AFF2A2AAE20E00055
:10099600000282815F41211D212141DF40010000CB
:1009A6004444FC444400FE9292FE929292FE000061
:1009B60010100F0848404544447F444444454000D5
:1009C60000103E1010F09F909092941C1010100092
:1009D600402010888741462810282740C040000044
:1009E6000000000000000000000000000000000001
:1009F6000018242418000000000000000000000079
:100A06000808E8A8A9AEEA0808C80C0BEA08080016
:100A160000007F0424443F00001F40807F00000048
:100A2600001010F8000000000000000000000000A8
:100A36000020203F202000000000000000000000F1
:100A460000E010080810E0000000000000000000B0
:100A5600000F102020100F00000000000000000012
:100A660000E010080810E000000000000000000090
:100A7600000F102020100F000000000000000000F2
:100A860000402010082744844424140C040000006D
:100A9600040404027E232322222222227E00000056
:100AA600000202F212121212F2020202FE02020008
:100AB6000000000702020202071020403F0000006B
:100AC6000212A242A29F828282EF82A2C282820088
:100AD600120944827F8040300C03041830602000E5
:100AE600100884E31A005F55555555D55F40400000
:100AF600020100FF0002023A0242827F0202020065
:100B0600000000007E4848484848484848CC08004D
:100B1600000404040404040404244644201F0000C2
:100B2600201AFAAFAAEF0AFA108F54245C84040044
:100B3600020202EAAAAAABAAABAAAAEA0202030026
:100B4600001010101010D03FD010121C1010100002
:100B5600404020100806010000030C102060200011
:100B66004041CE040000FC242424E222222220005C
:100B760040201F2040504F4040405F4040404000D2
:100B8600003E22E2223E00FE2222222222E2020031
:100B9600407F203F1111007F4242424242434000C3
:100BA600000404F484CCAD9694ACCC84F406040022
:100BB6000000FE021A16121312161A72827E000026
:100BC600000888483828090E0C0898286848080044
:100BD60000808040412214180C162361C04000009A
:100BE6001060018660044464554E4464C4040400E5
:100BF6000404FC0340300F00007F003F40407000BB
:100C06000080848494A4C4FF84C4B4948484800043
:100C160020201010080402FF0102040818301000FA
:100C260000180404F494949596949484940C040007
:100C360004844424371C1404040F1434E4440400CC
:100C4600101010FF109040304F8A880808FC0800EA
:100C56000818080704020A1808052442827F0000C3
:100C6600000202F212121212F2020202FE02020046
:100C76000000000702020202071020403F000000A9
:100C86000212A242A29F828282EF82A2C2828200C6
:100C9600120944827F8040300C0304183060200023
:100CA600100884E31A005F55555555D55F4040003E
:100CB600020100FF0002023A0242827F02020200A3
:100CC6000000F848484848FF48484848F8000000EF
:100CD60000000F040404043F444444444F407000A1
:100CE60000808888888888FF8888888888C08000EF
:100CF6000000007E2020203F202020207E000000D3
:100D060000000808080808FF080808080808000086
:100D160000012171292527212121297121010100A5
:100D26000002C2B21E12927202FE824242222200C9
:100D360042412020130C0300003F40404040780011
:100D46000000FC0444C444447F4444C4140C000022
:100D560080601F80804023140814232040C0400078
:100D6600000000000000000000000000000000007D
:100D760000005838000000000000000000000000DD
:100D8600088868FF2848007E4A4A4A4A4A7E000088
:100D9600020100FF000000FF44007F848482E2001D
:100DA60010D0FF50904454D4745FD454544440003F
:100DB6000300FF00020A090A0AFF0A0B090A0200D9
:100DC600101010FF9050988888E98E8888988800BF
:100DD6000242817F00404026251808163160200017
:100DE6000000FE4A2AFE1AAB4A2AFE1A2A4A420086
:100DF60040300F10151555957F1515151514100053
:100E06009088A7A2A6BAA2F8A7A2A6BAA282800034
:100E160000040404040C340444847F040404000025
:100E260000848494959694FC94969594948480007A
:100E36008080444424140C070C142464C444000029
:100E4600100C4424349C4536448C1474240C040041
:100E560004040202FD4444444444FD010206020027
:100E66004020F8178280BEA2A2E2A2A2BE80800025
:100E760000007F0020100806017F030C18301000C8
:100E86002010FC03645CC0545454FF547C101000C2
:100E960000007F22140C132465457F45454400005D
:100EA60040442424F45C5754545C542464C44400E1
:100EB60004044464574D4565252535E4440404007F
:100EC60000504C58AF9A4AA240669A8A16220000F1
:100ED60002020101FF492B0D19296FD009010100FA
:100EE60000000000000000000000000000000000FC
:100EF600000058380000000000000000000000005C
:100F06004041CE0400028242F20E428202020000FA
:100F160040201F20424140405F4040404742400041
:100F26009088A7A2A6BAA2F8A7A2A6BAA282800013
:100F360000040404040C340444847F040404000004
:100F4600804020F80F42404040FF40404040400073
:100F56000000007F00000000007F0000000000008D
:100F6600000000804020180F827020000000000062
:100F7600000001203028242221301014187020008F
:100F860040484848FF484840848484FC8484840060
:100F9600601F20207F4242424040405F4040400068
:100FA600003E00003FC042622E92122A26622000B6
:100FB600000040300545877D050414266C000000BE
:100FC600100884C6732240444444C4444444400048
:100FD600020100FF0000000040807F0000000000CA
:100FE600202424E4242424201010FF1010F00000F4
:100FF600081C0B080C054E24100C0320403F000073
:10100600FE020202FE00FE4242427E424242FE00D2
:101016000701010103003F4040404040404070004E
:10102600006010080890600000000000000000004A
:10103600000000005F00000000000000000000004B
:101046003031323334353637383961626364656638
:10105600003031323334353637383961626364658E
:071066006600344310100185
:1018EF00012A00012B00022E0006012C0101279670
:1018FF002020510000000000000000000000000048
:10190F0000000000000000000000000000000000C8
:10191F000000002020310000000000000000000047
:10192F0000000000000000000000000000000000A8
:10193F000000000000000121010122000123140119
:06194F0024000225000047
:0F1B00008F807F057E00121B0FD2CC7F057E00E9
:101B0F00D3EF9400EE940040147D6E7C00ED1D70B9
:0D1B1F00011CED4C70F7EF1F70E61E80E317
:011B2C002296
:081BBE00C2C5121B00C2CC22BB
:101B2D00121B507F70121B507F20121B507F2012F2
:101B3D001B507F20121B507F20121B507F20121B29
:031B4D00507F20A6
:081B5000D2C5121B00C2CC2219
:101B9000C2CCC2CD7F38121BBE7F0C121BBE7F068B
:081BA000121BBE7F01021BBEF7
:091BB500C2A2D2A3C2A1D2B22245
:10000600E4FEEF3392A4EF25E0FFD2A1A2A0E433F1
:080016004207C2A10EBE08EA78
:01001E0022BF
:0E1B58007F07121BA88F2DE52D4470FD7F27FF
:101B6600C2A3120006AC07AF05120006D2A3AF044B
:011B7600224C
:0C1BA800C2A3120006E4FF120006D2A344
:011BB400220E
:061A9F008B1C8A1D891E4C
:101AA500C2A3120006AD07E4FCECC3951F5017E472
:101AB500FF120006AB1CAA1DA91E8C82758300EFC0
:0A1AC5001216EA0C80E3D2A3AF056D
:011ACF0022F4
:0B1A65007BFF7A107968751A057F2A54
:061A70008B178A1889198A
:101A7600C2A3120006AD07E4FCECC3951A5015ABE1
:101A860017AA18A9198C827583001216BDFF1200B9
:081A9600060C80E5D2A3AF05A8
:011A9E002225
:101AD000C2A2121A657D017F21121B667F22121B92
:101AE000667D287F25121B667D207F31121B667D57
:101AF000077F26121B667D0F7F20121B66D2A22253
:1019B9007FC7121BBE7F2B121B507B007A00795107
:1019C9008B138A148915C2A27BFF7A107968751A5C
:1019D900057F30121A70121A65AB13AA14A915756E
:1019E9001A207FA0121A707D017F21121B667F22A7
:1019F900121B667D0A7F24121B667D287F25121B18
:101A0900667D077F26121B667D0E7F20121B66D21C
:021A1900A22207
:091A1B007FC87E00121B0FD200EF
:101A2400E4FF30B209EFC3943250030F80F4E52D84
:101A3400C45401F571E52DC413135401F528E52DA3
:101A4400C4135401F529E57160083000057FE112E3
:101A54000006121B5FD2B2E52960037F00227FFFDC
:011A6400225F
:10188200E4FBC2B320B412E521600E7F0A7E00128F
:101892001B0F20B404E4F5210B20B513E521600FE2
:1018A2007F0A7E00121B0F20B505E4F5217B022082
:1018B200B613E521600F7F0A7E00121B0F20B605CA
:1018C200E4F5217B0320B713E521600F7F0A7E0038
:1018D200121B0F20B705E4F5217B0430B40C30B5A0
:0C18E2000930B60630B703752101AF03D2
:0118EE0022D7
:10106D001218828F12E512B4040A052CE52CB40C6B
:10107D0003E4F52CE52CB40C00400302154590104B
:10108D0092F82828730210B60210F70211300211DF
:10109D00800211D502123B0213350212B80213C0A1
:1010AD0002140702146F0214A17FC0121BBE7F43EE
:1010BD00121B507F6C121B507F65121B507F6112EB
:1010CD001B507F72121B507F2E121B507F2E121B36
:1010DD00507F2E121B46E512640160030215457503
:1010ED0051AA75525575530180337FC0121BBE7FB7
:1010FD0053121B507F74121B507F6F121B2DE51264
:10110D006402600FE51264036009E5126401600377
:10111D000215457551AA755255755302E4F554FBE8
:10112D0002122C7FC0121BBE7F57121B507F6912FB
:10113D001B507F64121B507F65121B507F3A121B90
:10114D00377551AA755255E4F554E512B402097577
:10115D0053031219B9121A1BE51264036003021529
:10116D00457553047FC7121BBE7F2D121B507B008C
:10117D0002122C7FC0121BBE7F53121B507F7012A8
:10118D001B507F65121B507F65121B507F64121B15
:10119D00507F3A121B3C7551AA755255E4F554E532
:1011AD0012B402097553051219B9121A1BE512640E
:1011BD000360030215457553067FC7121BBE7F2DB5
:1011CD00121B507B0002122C7FC0121BBE7F5312CC
:1011DD001B507F70121B507F6F121B507F74121BA0
:1011ED00507F61121B507F64121B507F64121B4194
:1011FD007551AA755255E4F554E512B402097553AB
:10120D00071219B9121A1BE5126403600302154582
:10121D007553087FC7121BBE7F2D121B507B00120A
:10122D0019C57FC87E00121B0FD200021A247FC081
:10123D00121BBE7F43121B507F36121B507F341280
:10124D001B507F61121B507F64121B507F64121B59
:10125D00507F3A121B417551AA755255E512B402D1
:10126D00020522E512B4030A1522E522B4FF03E4B8
:10127D00F522E512B4010C7553098522541219C3D8
:10128D00121A1B7FC7121BBEE52275F06484243031
:10129D00FF121B50E52275F00A8475F00A84E5F003
:1012AD002430FF121B50E5220214667FC0121BBEB4
:1012BD007F55121B2D121B497551AA755255E512FA
:1012CD00B4020A0523E523B4FF037523FFE512B429
:1012DD00031D1523E5242406FFE433FED3E5239FE8
:1012ED00EE6480F87480985006E5242407F523E514
:1012FD0012B4010C75530A8523541219C3121A1B0B
:10130D007FC7121BBEE52375F064842430FF121BCA
:10131D0050E52375F00A8475F00A84E5F02430FF5A
:10132D00121B50E5230214667FC0121BBE7F4412B0
:10133D001B507F6F121B507F77121B507F6E121B3D
:10134D00507F3A121B377551AA7F027E00121B0F78
:10135D00755255E512B402130524E52324FAFFE571
:10136D0024C39F4006E52324F9F524E512B4030AAE
:10137D001524E524B4FF03E4F524E512B4010C753E
:10138D00530B8524541219C3121A1B7FC7121BBE8F
:10139D00E52475F064842430FF121B50E52475F0AC
:1013AD000A8475F00A84E5F02430FF121B50E52401
:1013BD000214667FC0121BBE7F53121B507F741226
:1013CD001B507F61121B507F72121B507F74121BBA
:1013DD00507F3A121B3C7551AA755255E512B40255
:1013ED0002052AE51264036003021545152AE52A54
:1013FD00F46003021545752AFF227FC0121BBE7FC4
:10140D004C121B507F65121B507F6E121B507F6755
:10141D00121B507F74121B507F68121B507F3A12A3
:10142D001B41E512B402020527E512B40306D527C8
:10143D00037527017FC7121BBEE52775F064842451
:10144D0030FF121B50E52775F00A8475F00A84E50C
:10145D00F02430FF121B50E52775F00A84E5F002E9
:10146D00153F7FC0121BBE7F53121B507F65121B91
:10147D00507F6E121B507F64121B32E512640160A7
:10148D0003021545E53070047F0180027F008F3027
:10149D00757201227FC0121BBE7F52121B507F5FDF
:1014AD00121B507F6C121B507F6F121B507F6E12E0
:1014BD001B507F67121B507F3A121B507F5F121B10
:1014CD00507F5F121B4BE512B40213052FE52F70F1
:1014DD0002052E6409452E7005F52E752F01E512B6
:1014ED00B40313E52F152F7002152EE52F452E7021
:1014FD0005F52E752F087FC7121BBEAE2EAF2F7CA4
:10150D00007D6412170CEF2430FF121B50AE2EAF6E
:10151D002F7C007D0A12170C7C007D0A12170CED32
:10152D002430FF121B50AE2EAF2F7C007D0A1217F8
:08153D000CED2430FF121B50DD
:011545002283
:101B770075985053A23F758E40758920758BDC751B
:091B87008DDCD28ED2ACD2AF226B
:10154600121BB5121B58121B90121B77D2AFD2A8D2
:05155600D288121AD03A
:10155B0012106D7F85121BBEE52A75F06484901006
:10156B004693FF121B50E52A75F00A8475F00A8426
:10157B00E5F093FF121B50E52A75F00A84E5F09312
:10158B00FF121B50E530604DE4F51075F020E52A95
:10159B00A42510F582E435F0F583E5822426F58247
:1015AB00E5833400F583E493FF74512510F8A60707
:1015BB000510E510B420D4052A1219C37FE87E0369
:1015CB00121A1F7FE87E03121B0FE52AB52703E4CF
:1015DB00F530E4F572121AD07F80121BBEE52C7524
:1015EB00F0648490104693FF121B50E52C75F00AA3
:1015FB008475F00A84E5F093FF121B50E52C75F00F
:10160B000A84E5F093FF121B50E52B700302155B68
:10161B00E4F510C3E510952FE4952E5043E4F51136
:10162B0075F020E510A42511F582E435F0F583E57E
:10163B00822400F582E5833400F583E0FF745125A5
:10164B0011F8A6070511E511B420D51219C37FE8CF
:10165B007E03121A1F7FE87E03121B0F051080B347
:10166B007FCD121BBE121B3FE4F52B7F89121BBED5
:10167B00E551C4540F2430FF121B50E551540F2475
:10168B0030FF121B50E552C4540F2430FF121B5075
:10169B00E552540F2430FF121B50E553C4540F2452
:0F16AB0030FF121B50E553540F2430FF121B5019
:0316BA0002155BBB
:0300030002195689
:10195600C0E0C083C082C0D075D000C000C001C046
:1019660002C003C004C005C006C007C2A8121B58A7
:10197600E52DC413135401F528601D7B007A007908
:1019860031751F207F61121A9FAD2D7F27121B66AE
:10199600E533B45503757201D2A8D007D006D00539
:1019A600D004D003D002D001D000D0D0D082D083D2
:0319B600D0E0324C
:0300230002176160
:0D176100C0E0C0F0C083C082C0D075D008C9
:10176E0030987AC29874002526F58274003525F5D6
:10177E0083E599F00526E52670020525E52FAE2EA8
:10178E007805C333CE33CED8F965267003EE6525C2
:10179E00704B7FCD121BBEAE2EAF2F7C007D641220
:1017AE00170CEF2430FF121B50AE2EAF2F7C007D96
:1017BE000A12170C7C007D0A12170CED2430FF1252
:1017CE001B50AE2EAF2F7C007D0A12170CED24306D
:0D17DE00FF121B50752B01752500752600AC
:0B17EB00D0D0D082D083D0F0D0E0320C
:10180200021546E493A3F8E493A34003F68001F2A1
:1018120008DFF48029E493A3F85407240CC8C333E7
:10182200C4540F4420C8834004F456800146F6DFB6
:10183200E4800B01020408102040809018EFE47E3F
:10184200019360BCA3FF543F30E509541FFEE493AB
:10185200A360010ECF54C025E060A840B8E493A372
:10186200FAE493A3F8E493A3C8C582C8CAC583CA9D
:10187200F0A3C8C582C8CAC583CADFE9DEE780BE55
:011955000091
:1016BD00BB010CE58229F582E5833AF583E02250E2
:1016CD0006E92582F8E622BBFE06E92582F8E2222C
:0D16DD00E58229F582E5833AF583E4932246
:1016EA00F8BB010DE58229F582E5833AF583E8F036
:1016FA00225006E92582C8F622BBFE05E92582C8E2
:02170A00F222C9
:10170C00BC000BBE0029EF8DF084FFADF022E4CCC1
:10171C00F875F008EF2FFFEE33FEEC33FCEE9DEC8A
:10172C00984005FCEE9DFE0FD5F0E9E4CEFD22EDD0
:10173C00F8F5F0EE8420D21CFEADF075F008EF2F1A
:10174C00FFED33FD4007985006D5F0F222C398FD0B
:05175C000FD5F0EA22A8
:00000001FF
