:0300000002092CC6
:0C092C00787FE4F6D8FD7581490209735C
:1000160080603CEB28284820188F08080808F8005C
:100026000101017F211109000000010620403F0067
:10003600004020F8171212F2121A1610F0000000F3
:100046004040404F4949494F494949494F4040007E
:10005600000000FC041665240444847C00000000B3
:1000660000382021213F212121394181413F0000D3
:1000760080808080BEAAAAAAAAAAAABE8080800082
:10008600004020100E10203F4444444444404000A9
:100096000000FC08080808FF08080808FC0800001B
:1000A60000000702020202FF02020202070000002D
:1000B60000FE020A8A8A8AFA8A8A8A0A02FE0000F0
:1000C60000FF40484848484F48494E4840FF000016
:1000D60000F88C8B88F840308F08080808F8000074
:1000E600007F1010103F000000032640201F000074
:1000F600000000F00000000000000000000000000A
:100106000000005F0000000000000000000000008A
:1001160000000000000000000000000000000000D9
:1001260000000000000000000000000000000000C9
:1001360000000000000000000000000000000000B9
:1001460000000000000000000000000000000000A9
:100156000000000000000000000000000000000099
:100166000000000000000000000000000000000089
:1001760080603CEB28284820188F08080808F800FB
:10018600004020F8171212F2121A1610F0000000A2
:10019600000000FC041665240444847C0000000072
:1001A60080808080BEAAAAAAAAAAAABE8080800051
:1001B6000000FC08080808FF08080808FC080000FA
:1001C60000FE020A8A8A8AFA8A8A8A0A02FE0000DF
:1001D60000F88C8B88F840308F08080808F8000073
:1001E6008080808080808080808080808080800089
:1001F6000000F848484848FF48484848F8000000CA
:1002060000000202020202E2120A06020080000058
:100216004020D04C434448D8301000FC0000FF007A
:1002260020242C35E6342C2400FC2424E22222004F
:100236000000FC08080808FF08080808FC08000079
:1002460000800000F00001021C0800408000000051
:1002560000080414D4545556545454D4140C0400B1
:10026600000000F000000000000000000000000098
:100276000000000000000000000000000000000078
:100286000000000000000000000000000000000068
:100296000000000000000000000000000000000058
:1002A6000000000000000000000000000000000048
:1002B6000000000000000000000000000000000038
:1002C6000000000000000000000000000000000028
:1002D6000000000000000000000000000000000018
:1002E6000000000000000000000000000000000008
:1002F60000000000000000000000000000000000F8
:1003060000000000000000000000000000000000E7
:1003160000000000000000000000000000000000D7
:1003260000000000000000000000000000000000C7
:100336000101017F211109000000010620403F0054
:100346004040404F4949494F494949494F4040007B
:1003560000382021213F212121394181413F0000E0
:10036600004020100E10203F4444444444404000C6
:1003760000000702020202FF02020202070000005A
:1003860000FF40484848484F48494E4840FF000053
:10039600007F1010103F000000032640201F0000C1
:1003A6000000000000000000000000000000000047
:1003B60000000F040404043F444444444F407000CA
:1003C600010101010141817F0101010101010100DA
:1003D60000003F40404244437800000720403F0071
:1003E60021114D817F05592118070000FF000000EB
:1003F60000000702020202FF0202020207000000DA
:10040600040300003F40404040404078000702009F
:10041600404040405F4949494949495F40404000A2
:100426000000005F00000000000000000000000067
:1004360000000000000000000000000000000000B6
:1004460000000000000000000000000000000000A6
:100456000000000000000000000000000000000096
:100466000000000000000000000000000000000086
:100476000000000000000000000000000000000076
:100486000000000000000000000000000000000066
:1004960000E010080810E000001010F8000000004E
:1004A6000070080808887000003008888848300006
:1004B6000000C02010F8000000F80888880808002E
:1004C60000E010888818000000380808C8380800BE
:1004D600007088080888700000E010080810E00026
:1004E600000F102020100F000020203F20200000C9
:1004F60000302824222130000018202020110E0070
:1005060000070424243F24000019212020110E0096
:10051600000F112020110E000000003F0000000017
:10052600001C222121221C000000312222110F0072
:100536000000F848484848FF48484848F800000086
:1005460000000F040404043F444444444F40700038
:0F0B8E00011B01011904011802011E32011A0096
:100CD800D3EF9400EE940040147D037C00ED1D706A
:0D0CE800011CED4C70F7EF1F70E61E80E35D
:010CF50022DC
:10055600E4F509F50A750B06F50D120DA1120D7BD2
:10056600D2AFC2A8D2AAD288D28A7580FF7590FF70
:10057600E4F508E50890053693FF74242508F8A6E7
:10058600070508E508B420EBE4F50874442508F8E7
:1005960076550508E508B405F27B007A0079441221
:1005A6000AC8D200120B117F017E00120CF6E4F588
:1005B60008E50875F020A4FDACF0E50875F010A478
:1005C6002400F9740035F0FA7B01AF05AE047D1006
:1005D6001209B8E50875F020A42410FDE435F0FCF6
:1005E600E50875F010A42460F9740035F0FA7B0173
:1005F600AF05AE047D101209B80508E508C39406D8
:1006060040AF120C8CE51D700302083CC2A87B00AB
:100616007A0079247512207F61120C02E52464AAFF
:1006260060030207F8E525645560030207F8C2AFC8
:10063600AF26EF14B40B0040030207F49006507582
:10064600F003A4C58325F0C583730206710206ADC7
:100656000206BC0206C90206D80206E40206F50234
:10066600076D0207E40207EC0207F1E4F5087424BB
:100676002508F8E4F60508E508B420F2E4F508E5EF
:100686000875F020A4FFAEF07B007A007924120BE7
:10069600527F057E00120CF66380FF0508E508C34D
:1006A60094FF40DB0207F4E51B70047F0180027FA4
:1006B600008F1B0207F40519E519640A6003020797
:1006C600F480091519E51960030207F47519040287
:1006D60007F41518E518F460030207F4800B0518F3
:1006E600E518640A60030207F47518020207F47439
:1006F60006250DF50DD394FA4003E4F50DE50D241A
:1007060007F50BE4F508E50875F010A42400F97464
:100716000035F0FA7B01E508250DFFE433FEEF789E
:1007260005C333CE33CED8F9FF7D101209B8E508DC
:1007360075F010A42460F9740035F0FA7B01E50821
:10074600250DFFE433FEEF7805C333CE33CED8F95B
:100756002410FFE43EFE7D101209B80508E508C323
:10076600940640A20207F474FA250DF50DC3940011
:100776005003750DFAE50D2407F50BE4F508E508B9
:1007860075F010A42400F9740035F0FA7B01E50831
:10079600250DFFE433FEEF7805C333CE33CED8F90B
:1007A600FF7D101209B8E50875F010A42460F974ED
:1007B6000035F0FA7B01E508250DFFE433FEEF78FE
:1007C60005C333CE33CED8F92410FFE43EFE7D10A8
:1007D6001209B80508E508C3940640A280107516EC
:1007E60000852717800885271E800385271AD2AF24
:1007F60080447B007A007924AF17AE16120B527430
:10080600202517F517E43516F516E517AE16780503
:10081600CEC313CE13D8F9F544F545754655E523F1
:100826004470FD7F27120D3B7B007A007944120A43
:10083600C8D200120B11D2A8751C01E51D6003E495
:10084600F51CE4F51DE51C70FCE4F50874002508AC
:10085600F582E43400F583E0F4F58074602508F54C
:1008660082E43400F583E0F4F590AF197E00120CB3
:10087600D80508E508C3946040D27580FF7590FFDF
:10088600050CE50CC395185003020608E51B70031A
:10089600020608E4F50CF50874012508F582E4342F
:1008A60000F583E0FF74002508F582E43400F58343
:1008B600EFF074612508F582E43400F583E0FF74F7
:1008C600602508F582E43400F583EFF00508E508B5
:1008D600B45FC5E50B75F020A47C00250AFFEC3556
:1008E600F0FE120C6390005FEFF0E50B75F020A4AC
:1008F6007C00250AFFEC35F0CF2410CF3400FE1221
:100906000C639000BFEFF0050AE50A64106003026D
:100916000608F50A050BE50BC3951E5003020608EB
:06092600851A0B02060811
:03000300020DBA31
:060DBA00751C00C2A83206
:03001300020A1DC1
:100A1D00C0E0C0F0C083C082C0D075D000C000C09F
:100A2D0001C002C003C004C005C006C0077F071285
:100A3D0000068F23E523C413135401F5216008C26A
:100A4D00A8751C00751D01E5234470FD7F27120D4F
:100A5D003BD007D006D005D004D003D002D001D0B2
:0C0A6D0000D0D0D082D083D0F0D0E03296
:100CF600D3EF9400EE940040147D6E7C00ED1D70E1
:0D0D0600011CED4C70F7EF1F70E61E80E33E
:010D130022BD
:100D6500303132333435363738396162636465661C
:060D7500003443101001E0
:100B9D00054400000000002020240000000000009B
:100BAD000000000000000000000000000000000038
:0A0BBD00000000000000000000002E
:090DA100C2A0D2B5C2A1D2B32256
:100D4C00E4FEEF3392B4EF25E0FFD2A1A2A2E4338C
:080D5C004207C2A10EBE08EA25
:010D6400226C
:090D32007D017F21120D3B7F229F
:100D3B00C2B5120D4CAC07AF05120D4CD2B5AF04BA
:010D4B002285
:0C000600C2B5120D4CE4FF120D4CD2B537
:0100120022CB
:060C02008B0F8A1089111E
:100C0800C2B5120D4CAD07E4FCECC395125017E4C5
:100C1800FF120D4CAB0FAA10A9118C82758300EF3F
:0A0C2800120AA60C80E3D2B5AF0556
:010C3200229F
:0B0BC8007BFF7A0D79767515057F2AFA
:060BD3008B128A13891445
:100BD900C2B5120D4CAD07E4FCECC395155015AB2D
:100BE90012AA13A9148C82758300120A79FF120DB7
:080BF9004C0C80E5D2B5AF05FC
:010C010022D0
:100C8C00C2A0120BC8120D327D287F25120D3B7DA0
:100C9C00207F31120D3B7D077F26120D3B7D0F7F90
:070CAC0020120D3BD2A02233
:100AC8008B0E8A0F8910C2A07BFF7A0D7976751577
:100AD800057F30120BD3120BC8AB0EAA0FA91075E5
:100AE80015207FA0120BD3120D327D0A7F24120D20
:100AF8003B7D287F25120D3B7D077F26120D3B7D10
:090B08000E7F20120D3BD2A02249
:100B110020B3FD7FFF120D4C8F23E523C45401F553
:100B210049E523C413135401F521E523C4135401EA
:100B3100F522E54960083000057FE1120D4CAD2337
:100B41007F27120D3BD2B3E52260037F00227FFF96
:010B51002281
:070DAA00C2A6120DB1D2A593
:010DB100221F
:0A0D9700D2A6120DACC2A6020DB1E7
:080DB200120DAAD2A6020DB138
:080C3300120D977FA0120D14B1
:100C3B00D2A5120DB130A6047F0180027F00E5140E
:100C4B00C394FA50047E0180027E00EE5F600405BF
:080C5B001480E2C2A5020DB1F4
:0D0D8A00C2A5120DB1120DAAC2A5020DB135
:0F0D7B00C2A5120DB1C2A6120DB1D2A5020DB1C3
:100D1400E4FEEF25E0FFC2A5120DB192A6120DACC0
:0E0D24000EBE08EEC2A5120DB1D2A6020DB190
:100CB300C2A5120DB1D2A6120DB1E4FED2A5120D3A
:100CC300B1EF25E0FDA2A6E4334DFFC2A5120DB19D
:040CD3000EBE08E861
:010CD70022FA
:0A0B52008E0E8F0F8B108A1189128E
:100B5C00E4FD120C33E50EFF120D14120C3BAF0F1B
:100B6C00120D14120C3BAB10AA11A9128D827583B5
:100B7C0000120A79FF120D14120C3B0DBD20E70276
:020B8C000DB2A8
:040C6300AD07AC0627
:100C6700120C33AF04120D14120C3BAF05120D1406
:100C7700120C3B120D977FA1120D14120C3B120C94
:040C8700B3120DB2E5
:010C8B002246
:0C09B8008E0E8F0F8D108B118A12891388
:1009C400120C33E50EFF120D14120C3BAF0F120D77
:1009D40014120C3B120D977FA1120D14120C3BE460
:1009E400FCE51014FFECC39F5018120CB3AB11AA12
:1009F40012A9138C82758300EF120AA6120D8A0CB9
:100A040080DF120CB3AB11AA12A913AE048E827547
:090A14008300EF120AA6020DB2E4
:10093800020556E493A3F8E493A34003F68001F27A
:1009480008DFF48029E493A3F85407240CC8C333C0
:10095800C4540F4420C8834004F456800146F6DF8F
:10096800E4800B0102040810204080900B8EE47E86
:10097800019360BCA3FF543F30E509541FFEE49384
:10098800A360010ECF54C025E060A840B8E493A34B
:10099800FAE493A3F8E493A3C8C582C8CAC583CA76
:1009A800F0A3C8C582C8CAC583CADFE9DEE780BE2E
:010BC700002D
:100A7900BB010CE58229F582E5833AF583E0225032
:100A890006E92582F8E622BBFE06E92582F8E2227C
:0D0A9900E58229F582E5833AF583E4932296
:100AA600F8BB010DE58229F582E5833AF583E8F086
:100AB600225006E92582C8F622BBFE05E92582C832
:020AC600F2221A
:00000001FF
